{
  "_format": "hh-sol-artifact-1",
  "contractName": "PermitRegistry",
  "sourceName": "contracts/PermitRegistry.sol",
  "abi": [
    {
      "anonymous": false,
      "inputs": [
        {
          "indexed": true,
          "internalType": "bytes32",
          "name": "permitHash",
          "type": "bytes32"
        },
        {
          "indexed": false,
          "internalType": "uint256",
          "name": "timestamp",
          "type": "uint256"
        }
      ],
      "name": "PermitIssued",
      "type": "event"
    },
    {
      "inputs": [
        {
          "internalType": "bytes32",
          "name": "permitHash",
          "type": "bytes32"
        }
      ],
      "name": "isValid",
      "outputs": [
        {
          "internalType": "bool",
          "name": "",
          "type": "bool"
        }
      ],
      "stateMutability": "view",
      "type": "function"
    },
    {
      "inputs": [
        {
          "internalType": "bytes32",
          "name": "permitHash",
          "type": "bytes32"
        }
      ],
      "name": "issuePermit",
      "outputs": [],
      "stateMutability": "nonpayable",
      "type": "function"
    },
    {
      "inputs": [
        {
          "internalType": "bytes32",
          "name": "",
          "type": "bytes32"
        }
      ],
      "name": "permits",
      "outputs": [
        {
          "internalType": "bool",
          "name": "",
          "type": "bool"
        }
      ],
      "stateMutability": "view",
      "type": "function"
    }
  ],
  "bytecode": "0x608060405234801561001057600080fd5b50610356806100206000396000f3fe608060405234801561001057600080fd5b50600436106100415760003560e01c806339747ad514610046578063551883c7146100765780636a93856714610092575b600080fd5b610060600480360381019061005b919061020c565b6100c2565b60405161006d9190610254565b60405180910390f35b610090600480360381019061008b919061020c565b6100e2565b005b6100ac60048036038101906100a7919061020c565b6101a8565b6040516100b99190610254565b60405180910390f35b60006020528060005260406000206000915054906101000a900460ff1681565b60008082815260200190815260200160002060009054906101000a900460ff1615610142576040517f08c379a0000000000000000000000000000000000000000000000000000000008152600401610139906102cc565b60405180910390fd5b600160008083815260200190815260200160002060006101000a81548160ff021916908315150217905550807f436eea8d271b561ee246f4d8bccf10242b6e8ed3aed18abad30cbc5e4cb6defd4260405161019d9190610305565b60405180910390a250565b600080600083815260200190815260200160002060009054906101000a900460ff169050919050565b600080fd5b6000819050919050565b6101e9816101d6565b81146101f457600080fd5b50565b600081359050610206816101e0565b92915050565b600060208284031215610222576102216101d1565b5b6000610230848285016101f7565b91505092915050565b60008115159050919050565b61024e81610239565b82525050565b60006020820190506102696000830184610245565b92915050565b600082825260208201905092915050565b7f5065726d697420616c7265616479206973737565640000000000000000000000600082015250565b60006102b660158361026f565b91506102c182610280565b602082019050919050565b600060208201905081810360008301526102e5816102a9565b9050919050565b6000819050919050565b6102ff816102ec565b82525050565b600060208201905061031a60008301846102f6565b9291505056fea26469706673582212204592e60458e2b1ebc8cccfa1396870dabb837f5791a79227247f7a3275a6cadf64736f6c63430008140033",
  "linkReferences": {},
  "deployedLinkReferences": {}
}